:020000040000fa
:080000000002040000000000f2
:020000040000fa
:0400080036030000bb
:020000040000fa
:04000c007803000075
:020000040000fa
:04001000d803000011
:020000040000fa
:04001400560300008f
:020000040000fa
:040018009803000049
:020000040000fa
:04001c00b803000025
:020000040000fa
:04002000f8030000e1
:020000040000fa
:04002400d2080000fe
:020000040000fa
:04002800d2080000fa
:020000040000fa
:04002c00d2080000f6
:020000040000fa
:04003000d2080000f2
:020000040000fa
:04003400d2080000ee
:020000040000fa
:04003800d2080000ea
:020000040000fa
:04003c00d2080000e6
:020000040000fa
:04004000d2080000e2
:020000040000fa
:040044003808000078
:020000040000fa
:040048007e0800002e
:020000040000fa
:04004c00d2080000d6
:020000040000fa
:04005000d2080000d2
:020000040000fa
:04005400b6070000eb
:020000040000fa
:040058005407000049
:020000040000fa
:04005c002404000078
:020000040000fa
:04006000d2080000c2
:020000040000fa
:04006400d2080000be
:020000040000fa
:04006800d2080000ba
:020000040000fa
:04006c00d2080000b6
:020000040000fa
:04007000d2080000b2
:020000040000fa
:04007400d2080000ae
:020000040000fa
:04007800b4080000c8
:020000040000fa
:04007c006604000016
:020000040000fa
:04008000d2080000a2
:020000040000fa
:04008400d20800009e
:020000040000fa
:04008800d20800009a
:020000040000fa
:04008c00d208000096
:020000040000fa
:04009000d208000092
:020000040000fa
:04009400d20800008e
:020000040000fa
:04009800d20800008a
:020000040000fa
:04009c00d208000086
:020000040000fa
:0400a000d206000084
:020000040000fa
:0400a40070060000e2
:020000040000fa
:0400a800d20800007a
:020000040000fa
:0400ac00d208000076
:020000040000fa
:0400b000d208000072
:020000040000fa
:0400b400d20800006e
:020000040000fa
:0400b800d20800006a
:020000040000fa
:0400bc00d208000066
:020000040000fa
:0400c000d208000062
:020000040000fa
:0400c400d20800005e
:020000040000fa
:0400c800d20800005a
:020000040000fa
:0400cc00d208000056
:020000040000fa
:0400d000d208000052
:020000040000fa
:0400d400d20800004e
:020000040000fa
:0400d800d20800004a
:020000040000fa
:0400dc00d208000046
:020000040000fa
:0400e000d208000042
:020000040000fa
:0400e400d20800003e
:020000040000fa
:0400e800d20800003a
:020000040000fa
:0400ec00d208000036
:020000040000fa
:0400f000d208000032
:020000040000fa
:0400f400d20800002e
:020000040000fa
:0400f800d20800002a
:020000040000fa
:0400fc00d208000026
:020000040000fa
:04010000d208000021
:020000040000fa
:04010400d20800001d
:020000040000fa
:04010800d208000019
:020000040000fa
:04010c00d208000015
:020000040000fa
:04011000d208000011
:020000040000fa
:04011400d20800000d
:020000040000fa
:04011800d208000009
:020000040000fa
:04011c00d208000005
:020000040000fa
:04012000d208000001
:020000040000fa
:04012400d2080000fd
:020000040000fa
:04012800d2080000f9
:020000040000fa
:04012c0022080000a5
:020000040000fa
:040130003e07000086
:020000040000fa
:04013400d2080000ed
:020000040000fa
:04013800d2080000e9
:020000040000fa
:04013c00d2080000e5
:020000040000fa
:04014000d2080000e1
:020000040000fa
:04014400d2080000dd
:020000040000fa
:04014800d2080000d9
:020000040000fa
:04014c00d2080000d5
:020000040000fa
:04015000d2080000d1
:020000040000fa
:04015400d2080000cd
:020000040000fa
:04015800d2080000c9
:020000040000fa
:04015c00d2080000c5
:020000040000fa
:04016000d2080000c1
:020000040000fa
:04016400d2080000bd
:020000040000fa
:04016800d2080000b9
:020000040000fa
:04016c005a0600002f
:020000040000fa
:04017000ee05000098
:020000040000fa
:040174008c050000f6
:020000040000fa
:04017800d2080000a9
:020000040000fa
:04017c00d2080000a5
:020000040000fa
:04018000d2080000a1
:020000040000fa
:0401840076050000fc
:020000040000fa
:040188000a05000064
:020000040000fa
:04018c00a8040000c3
:020000040000fa
:04019000d208000091
:020000040000fa
:04019400d20800008d
:020000040000fa
:04019800d208000089
:020000040000fa
:04019c00d208000085
:020000040000fa
:0401a000d208000081
:020000040000fa
:0401a400d20800007d
:020000040000fa
:0401a800d208000079
:020000040000fa
:0401ac00d208000075
:020000040000fa
:0401b000d208000071
:020000040000fa
:0401b400d20800006d
:020000040000fa
:0401b800d208000069
:020000040000fa
:0401bc00d208000065
:020000040000fa
:0401c000d208000061
:020000040000fa
:0401c400d20800005d
:020000040000fa
:0401c800d208000059
:020000040000fa
:0401cc00d208000055
:020000040000fa
:0401d000d208000051
:020000040000fa
:0401d400d20800004d
:020000040000fa
:0401d800d208000049
:020000040000fa
:0401dc00d208000045
:020000040000fa
:0401e000d208000041
:020000040000fa
:0401e400d20800003d
:020000040000fa
:0401e800d208000039
:020000040000fa
:0401ec00d208000035
:020000040000fa
:0401f000d208000031
:020000040000fa
:0401f400d20800002d
:020000040000fa
:0401f800d208000029
:020000040000fa
:0401fc00d208000025
:020000040000fa
:04020000d208000020
:020000040000fa
:04020400d20800001c
:020000040000fa
:04020800d208000018
:020000040000fa
:04020c00d208000014
:020000040000fa
:04021000d208000010
:020000040000fa
:04021400d20800000c
:020000040000fa
:04021800d208000008
:020000040000fa
:04021c00d208000004
:020000040000fa
:04022000d208000000
:020000040000fa
:04022400d2080000fc
:020000040000fa
:04022800d2080000f8
:020000040000fa
:04022c00d2080000f4
:020000040000fa
:04023000d2080000f0
:020000040000fa
:04023400d2080000ec
:020000040000fa
:04023800d2080000e8
:020000040000fa
:04023c00d2080000e4
:020000040000fa
:04024000d2080000e0
:020000040000fa
:04024400d2080000dc
:020000040000fa
:04024800d2080000d8
:020000040000fa
:04024c00d2080000d4
:020000040000fa
:04025000d2080000d0
:020000040000fa
:04025400d2080000cc
:020000040000fa
:04025800d2080000c8
:020000040000fa
:04025c00d2080000c4
:020000040000fa
:04026000d2080000c0
:020000040000fa
:04026400d2080000bc
:020000040000fa
:04026800d2080000b8
:020000040000fa
:04026c00d2080000b4
:020000040000fa
:04027000d2080000b0
:020000040000fa
:04027400d2080000ac
:020000040000fa
:04027800d2080000a8
:020000040000fa
:04027c00d2080000a4
:020000040000fa
:04028000d2080000a0
:020000040000fa
:10040000efae21000eff24000e0188000000000066
:10041000000020000000e000020032000001200087
:100420002002880014000700af0307000000e0006e
:1004300003003a0080c023000100200002003700c2
:100440000000200001002000810f70000100320038
:100450000f000700000020000000e0000200320052
:100460000000020000000000bc4402000000000088
:100470000040da000000fe00603120000000e000d3
:1004800002003200002020009001880000000600d9
:10049000a1028800800478000000eb001f003700f4
:1004a000e284440054a0b4009905ba00e2844400f8
:1004b00054a0b4009906ba00e284440054a0b400e9
:1004c0000006eb00476fde00fd07b200ae018800ba
:1004d000636ce10003003a000ad801000000eb0061
:1004e0000e003700606ce10008003a00004deb00a0
:1004f0000a05e800020039003420ec000af0a000f0
:100500008b05e900f9ff3e00040037006168e10057
:10051000010032000086eb000b00070019c7ba008b
:100520000e04e0001905ba0003003a000a00e000da
:10053000dbff3a0000000600fe07b200ae028800b2
:100540008a047800f5ff37000cd0a300e20f4d00bd
:100550001c00390089027800354dba000a05e80010
:10056000020039003420ec000af0a0008b05e900fd
:100570000f003200254dba000a05e80002003900dc
:100580003420ec000af0a0008b05e90008003200de
:100590000c00e0000600320015cdba000a05e800a4
:1005a000020039003420ec000af0a0008b05e900bd
:1005b0008984e80054a0b4000b00e000e2ff3a0098
:1005c000000006009902ba00055d78008b05e9007d
:1005d000f7ff3200c82ade00055d78008b05e900d0
:1005e000f3ff32000c00e000f1ff320019ddba0029
:1005f000eeff37008e440400000000005c4404005d
:1006000000000000ba2c040000000000d82c0400f8
:1006100000000000ee350400000000000c3604006d
:1006200000000000ce2f040000000000ec2f0400aa
:1006300000000000de32040000000000fc32040074
:10064000000000007440040000000000ba3f0400f5
:1006500000000000e409040000000000de140400b3
:100660000000000000000400000000003600f80058
:10067000809fbe00829fbe00849fbe00869fbe00fa
:100680000000fa00c028a9000000eb00e0200700ed
:100690000080fa004f03be004f02be004f01be00b3
:1006a0004f00be003600f900004006003600f8009a
:1006b000809fbe00829fbe00849fbe00869fbe00ba
:1006c0000000fa00d7200700c048a9001000200051
:1006d000cf2007000080fa004f03be004f02be008b
:1006e0004f01be004f00be003600f900004006007a
:1006f0003600f800809fbe00829fbe00849fbe002f
:10070000869fbe000000fa00c068a90020002000fb
:10071000bf2007000080fa004f03be004f02be005a
:100720004f01be004f00be003600f9000040060039
:100730003600f800809fbe00829fbe00849fbe00ee
:10074000869fbe000000fa00c088a900300020008b
:10075000af2007000080fa004f03be004f02be002a
:100760004f01be004f00be003600f90000400600f9
:100770003600f800809fbe00829fbe00849fbe00ae
:10078000869fbe000000fa00c0a8a900400020001b
:100790009f2007000080fa004f03be004f02be00fa
:1007a0004f01be004f00be003600f90000400600b9
:1007b0003600f800809fbe00829fbe00849fbe006e
:1007c000869fbe000000fa00c608a9007000200045
:1007d0008f2007000080fa004f03be004f02be00ca
:1007e0004f01be004f00be003600f9000040060079
:1007f0003600f800809fbe00829fbe00849fbe002e
:10080000869fbe000000fa00214680000002200002
:10081000008060000000e00003003200c4a8a900ce
:10082000900020007a2007002046800070006000c1
:100830000000e00003003200c488a900a0002000ee
:1008400073200700ffff37003600f800809fbe00ce
:10085000829fbe00849fbe00869fbe003200f800cb
:100860003400f80010002000a001880000202000c3
:1008700090018800000000000000fa0001408000a4
:1008800000002200008060000000e000060032004e
:10089000708280000000e000020032007082800060
:1008a0000000010001a8a9000080fa003400f9004e
:1008b0003200f9004f03be004f02be004f01be00e0
:1008c0004f00be003600f900004006003600f80078
:1008d000809fbe00829fbe00849fbe00869fbe0098
:1008e0003200f8003400f80010002000a001880059
:1008f0000020200090018800000000000000fa00a5
:100900001140800000022000008060000000e00034
:1009100006003200808280000000e0000200320009
:10092000808280000000010002a8a9000080fa0077
:100930003400f9003200f9004f03be004f02be0040
:100940004f01be004f00be003600f9000040060017
:100950003600f800809fbe00829fbe00849fbe00cc
:10096000869fbe000000fa00508080000000e0007a
:1009700002003200508080000000010031808000c1
:1009800020808000808f500002003a002b28a900b0
:10099000190037000b28a9001000370030808000b4
:1009a000904078008180fb00a11588000000e800dd
:1009b0003080880031808000909f2100808f50001f
:1009c00002003a00009f21003080880031808000c2
:1009d00020808000808f500006003200911580003a
:1009e00000202000008060000000e000ebff3200eb
:1009f00001003700000000000080fa004f03be0035
:100a00004f02be004f01be004f00be003600f9008d
:100a1000004006003600f800809fbe00829fbe00a6
:100a2000849fbe00869fbe000000fa0060808000a8
:100a30000000e00002003200608080000000010041
:100a40000b08a9001e00370000808000b11580004f
:100a5000814078000148780001808000b0a2210028
:100a6000808f500009003200008080008000e80084
:100a700010808000808f50000400320000808000d1
:100a80000000e800008088000d0037000180800031
:100a9000b0a22100808f500007003a001180800032
:100aa000909f2100808f500003003200909f210012
:100ab000008088000200370010c0b30008f0b700c3
:100ac00090158000610060000000e000deff3a0049
:100ad0000080fa004f03be004f02be004f01be006f
:100ae0004f00be003600f90000400600801f78006d
:100af0000000fa0090158000620060000000e00035
:100b000001003200b222a9000ae8a9000080fa0020
:100b10004f007800004006003600f800809fbe00bd
:100b2000829fbe00849fbe00869fbe000000fa0028
:100b3000c08080000000e00002003200c080800021
:100b400000000100a180800090808000808f500014
:100b500002003a002a68a900190037000a68a900b3
:100b600010003700a0808000904078008180fb005a
:100b7000a11288000000e800a0808800a180800009
:100b800070862100808f500002003a00e08521002d
:100b9000a0808800a180800090808000808f50001d
:100ba00006003200911280000020200000806000ca
:100bb0000000e000ebff3200010037000000000001
:100bc0000080fa004f03be004f02be004f01be007e
:100bd0004f00be003600f900004006003600f80065
:100be000809fbe00829fbe00849fbe00869fbe0085
:100bf0000000fa00d08080000000e0000200320017
:100c0000d0808000000001000a48a9001e003700c3
:100c100070808000b1128000814078000148780027
:100c20007180800060962100808f500009003200a2
:100c3000708080008000e80080808000808f5000fd
:100c400004003200708080000000e800708088009e
:100c50000d0037007180800060962100808f500069
:100c600007003a008180800070862100808f50004c
:100c70000300320070862100708088000200370077
:100c800010c0b30016f0b700901280006100600041
:100c90000000e000deff3a000080fa004f03be00d3
:100ca0004f02be004f01be004f00be003600f900eb
:100cb00000400600801f78000000fa0090128000bb
:100cc000620060000000e000010032005222a90032
:100cd0000a28a9000080fa004f00780000400600b2
:100ce0003600f800809fbe00829fbe00849fbe0039
:100cf000869fbe000000fa00308180000000e00006
:100d0000020032003081800000000100118180006b
:100d100000818000808f500002003a0023e8a90083
:100d20001900370003e8a900100037001081800087
:100d3000904078008180fb00a11188000000e8004d
:100d4000108188001181800050ab2100808f5000fd
:100d500002003a00c0aa21001081880011818000a1
:100d600000818000808f50000600320091118000c9
:100d700000202000008060000000e000ebff320057
:100d800001003700000000000080fa004f03be00a1
:100d90004f02be004f01be004f00be003600f900fa
:100da000004006003600f800809fbe00829fbe0013
:100db000849fbe00869fbe000000fa004081800034
:100dc0000000e000020032004081800000000100cd
:100dd00003c8a9001e003700e0808000b111800028
:100de0008140780001487800e1808000d0ab21008c
:100df000808f500009003200e08080008000e80011
:100e0000f0808000808f500004003200e08080007d
:100e10000000e800e08088000d003700e1808000dd
:100e2000d0ab2100808f500007003a00f180800095
:100e300050ab2100808f50000300320050ab2100e6
:100e4000e08088000200370010c0b30024f0b70033
:100e500090118000610060000000e000deff3a00b9
:100e60000080fa004f03be004f02be004f01be00db
:100e70004f00be003600f90000400600801f7800d9
:100e80000000fa0090118000620060000000e000a5
:100e9000010032003222a9000848a9000080fa00af
:100ea0004f007800004006003600f800809fbe002a
:100eb000829fbe00849fbe00869fbe000000fa0095
:100ec000a08180000000e00002003200a0818000cc
:100ed000000001008181800070818000808f5000bf
:100ee00002003a002188a900190037000188a900f2
:100ef0001000370080818000904078008180fb00e6
:100f0000211188000000e800808188008181800034
:100f100070ac2100808f500002003a00e0ab21004d
:100f2000808188008181800070818000808f5000e6
:100f300006003200111180000020200000806000b7
:100f40000000e000ebff320001003700000000006d
:100f50000080fa004f03be004f02be004f01be00ea
:100f60004f00be003600f900004006003600f800d1
:100f7000809fbe00829fbe00849fbe00869fbe00f1
:100f80000000fa00b08180000000e00002003200a2
:100f9000b0818000000001000168a9001e00370038
:100fa0005081800031118000814078000148780034
:100fb00051818000f0ac2100808f50000900320088
:100fc000508180008000e80060818000808f5000a8
:100fd00004003200508180000000e8005081880049
:100fe0000d00370051818000f0ac2100808f50004f
:100ff00007003a006181800070ac2100808f5000b2
:101000000300320070ac21005081880002003700dc
:1010100010c0b30032f0b700101180006100600012
:101020000000e000deff3a000080fa004f03be003f
:101030004f02be004f01be004f00be003600f90057
:1010400000400600801f78000000fa0010118000a8
:10105000620060000000e000010032002222a900ce
:101060000828a9000080fa004f0078000040060020
:101070003600f800809fbe00829fbe00849fbe00a5
:10108000869fbe000000fa00508280000000e80049
:10109000508288005182800070072000808f5000ad
:1010a00006003600408280000000e00002003200ae
:1010b00040828000000001004a30ef0030ae210085
:1010c000104078008040e80030ae210001487800f0
:1010d00020ae210011c0b3000148780000e8a9004b
:1010e0000080fa004f03be004f02be004f01be0059
:1010f0004f00be003600f900004006003600f80040
:10110000809fbe00829fbe00849fbe00869fbe005f
:101110000000fa00908280000000e000020032002f
:10112000908280000000010050ae21001040780045
:101130008040e80050ae21000148780040ae210018
:1011400011c0b300014878000108a9000080fa002e
:101150004f03be004f02be004f01be004f00be0055
:101160003600f900004006003600f800809fbe00ff
:10117000829fbe00849fbe00869fbe000000fa00d2
:10118000161e07000288a9000080fa004f03be0067
:101190004f02be004f01be004f00be003600f900f6
:1011a000004006000040da000000fe000a00fa00dd
:1011b00011002000b1bf9f00c0bf9f006a80570090
:1011c000b50607004fb897000080fa00000006003f
:1011d0000a00fa0051002000b1bf9f00c0bf9f006d
:1011e0006a805700ae0607005fb897000080fa00db
:1011f00000000600889fbe008004780060d7800051
:101200000000e00004003a000e0007000084eb003c
:101210000000e0000800350068d780000900e00009
:101220000500320009004400060007000000e0004d
:1012300001003d000084eb00080078004f04be0070
:1012400000000600800078000100e00003003a0082
:101250000000200060d78800000005000080eb003f
:1012600002002000828f500002003e0061d78800fb
:101270000000eb00000006000a00fa0020079800ba
:101280003107980042079800be00900011079800af
:101290000000eb00000f78000c0037000000000099
:1012a0000e1507000004a2000004e000fcff3a0055
:1012b0001e009000104078009e0090008100e80021
:1012c00011079800e51407001e0fe8004e0090007b
:1012d0009e007800808f5000f0ff39004e00900093
:1012e0000080fa00000006000000050001992100be
:1012f0005a020700800078000080eb000100e00047
:101300000400350001992100a0002000080007001a
:101310004f80de00000006008000780001017800a8
:101320003104e000fdff3a0000005100000006001b
:10133000889fbe008a1f78000004be00c90090008c
:1013400069009000808f5000050039000900780086
:10135000050307008080eb000000e0001600350068
:10136000084578004900900008587800c0049800ab
:101370001900780000b8a30004003a0000a8a300f8
:1013800007003200ea4f540005003a0009007800d7
:10139000f70107008080eb000000e00006003a0043
:1013a00000c02000190060000200320049009000d7
:1013b000e00498008a80fb00010078004f05780067
:1013c0004f04be0000000600889fbe0000047800a5
:1013d0000100780082047800880178000901780013
:1013e0001100200065020700890f50000100320043
:1013f0000004eb00080078004f04be000000060067
:101400000000fa00e88157004fb9970001992100c8
:10141000409e2000020007000080fa000000060045
:101420006200fa00889fbe008a1f780000057800dd
:1014300081047800020478008300780080f92f008e
:101440000f004000080507009a979f00a9979f008a
:101450000000eb00b09f9f001885fb008a04fb0092
:101460000a05ea004f55de0050022000808f54002c
:101470000d003200e10f55000b003a000a01780020
:10148000880078002f9097009f919700030001003b
:10149000a0979f000000e0008e0032003f98970068
:1014a0000000e800b09f9f000a04440050022000a2
:1014b000808f5400040032000900e000e6ff3a008b
:1014c0003f989700840037000000eb00909f9f003a
:1014d000809f9f00f0979f00e0979f00d0979f000c
:1014e000c0979f000700370061aa2100010050004b
:1014f00000004000a1a92100808040005f98970073
:1015000011007000d09f9f008804780009047800c3
:10151000384578008a00fb0060aa21007c020700a1
:101520000000e000f0ff3a00a1c2b300814f550077
:101530000e003a00cf8897000180e900c08f9f001d
:1015400010007800c09f9f000000e00005003d00f3
:101550000000ea00c09f9f005f9897000020a00055
:10156000d09f9f000904e8000f003700c09f9f0034
:101570000000eb0005003700f2ff2700820f50004b
:1015800002003200ea00b90000804000090478003f
:1015900088047800b900fb000103b100e98f500016
:1015a000f5ff3600c09f9f00e0c2b300984f1000c7
:1015b000020032000080eb0019003700a0c2b30027
:1015c000d84f100007003a00cf8897000180e9004b
:1015d000c08f9f0010007800a09f9f000804e800c3
:1015e000100037000000eb00a09f9f0088007800eb
:1015f00005003700f3ff2700830f50000200320080
:10160000ea00b90000004100010478008800780079
:101610003101fb000203b100e90f5100f5ff360074
:10162000a09f9f00984478008900fb0020a921001a
:10163000370207000000e000020032000804e80062
:10164000010037008044eb00c97f9f0080c6b300d3
:1016500080cf540004003a0098cf14000a003a00ea
:101660006640500006003700c0c6b30080cf54006b
:1016700005003a0098cf140003003a00654040008e
:10168000c07f9f000804e8001801fb00e3fb2f0067
:101690008f81410081f92f008f804000a0f92f0039
:1016a0000f004000100007000000e00009003a00b1
:1016b000e1fb2f008f804000a0f92f000f004000b9
:1016c000ad0307000000e000020035000804e80058
:1016d00061ff37000080eb004f0578004f04be002b
:1016e0000080fa0000000600889fbe008a9fbe00ae
:1016f000e4c6b300844f5100ce00320010003c001d
:101700006b425200844f51001800320005003c002b
:1017100054c2b300844f51000601320084c5b300a7
:101720000f00370044c6b300844f5100150032004b
:1017300065424200844f510001013a001100370018
:1017400004c7b300844f5100ed0032005f00350044
:1017500065424200844f51005c0032006342420007
:10176000844f5100f6003a00580037001181e9001b
:1017700082087800f0009000818141009249780051
:10178000f500370020629000c5c6b300854f5200b7
:1017900008003a00910278006482520084087800c0
:1017a00094029000140278004fabde0086037800ac
:1017b0001600370015c7b300854f520003003a00ea
:1017c000110478006802540005003700a5c6b30074
:1017d000854f520008003a00910478006882540056
:1017e000840878009402900024039000b4039000d1
:1017f00014027800050037001182e900840878009f
:1018000014027800cfa2de00612bb9000498be005c
:101810000690be00a060900088c6b30088cf50003c
:101820000d00320028c6b30088cf500004003a00f3
:101830000402fb00cfa2de00612bb90008003700d4
:1018400048c7b30088cf500003003200664444000c
:1018500088cf500004003a00cfa2de00612bb9000f
:101860000498be000690be0010027800900290001e
:1018700020039000b0039000f0009000e00f5200b1
:10188000e08f5a00e00f5b00e08f5b0003003d003b
:1018900001824100d5c2b3000a0037000012900057
:1018a0000418a3000300320001824100b5c2b30056
:1018b000040037000408a3005900320001824100ef
:1018c00005c2b300054a780053003700206290003b
:1018d000c5c6b300854f520009003a0011057800d3
:1018e0006402550084087800140478009404900081
:1018f0006055b8000802be000a03be00160037009b
:1019000015c7b300854f520003003a0091047800d8
:101910006882540005003700a5c6b300854f520009
:1019200008003a0011057800680255008408780024
:101930009402900024039000b403900014027800f5
:10194000050037001182e90084087800140278004d
:101950008002eb006033b8000498be000690be0021
:10196000a060900088c6b30088cf50000d00320000
:1019700028c6b30088cf500004003a000482fb0060
:101980008002eb006033b8000800370048c7b3009e
:1019900088cf5000030032006644440088cf5000d6
:1019a00004003a008002eb006033b8000498be00e7
:1019b0000690be00801090000138a300180032008d
:1019c000100278009002900020039000b003900075
:1019d000e00f5200e08f5a00e00f5b00e08f5b00e9
:1019e0000f00320081c7b300814f51000300320065
:1019f00081c5b300814f510009003a00f00090000a
:101a00000182410005c3b300054a78008100e80067
:101a100001824100024a78008100e80071009800cc
:101a2000f0009000818141006300980082407800be
:101a30003e003700a0619000c4c6b3001181e900e8
:101a400084cf5100220032000a003c006442520060
:101a500084cf51002500320004c2e80084cf510039
:101a6000130032006842520084cf51001e003a0039
:101a70000a00370044c7b30084cf51001b00320076
:101a80006642420084cf5100180032006942520081
:101a900084cf510014003a00050037008208780016
:101aa0009200780040589000804878002c00370061
:101ab0008208780092007800600a9000cfa2de00d1
:101ac000612bb9008498be008690be0024003700c8
:101ad000820878009200780060099000cf91de00c3
:101ae0008288be001e0037001181e900820878005c
:101af0009200780060089000800878001800370095
:101b00001181e9008208780012027800cfa2de007d
:101b1000612bb9000498be000690be00f000900052
:101b2000818141006300980081c7b300550107001f
:101b30000b003700f0009000818141000500370064
:101b4000f0009000818141000204e00001003a00b1
:101b500052c2b300824978008100e8007100980009
:101b60000000eb004f05be004f04be000000060061
:101b7000889fbe008a1f7800000478000800e000fb
:101b80000d003a00e89d2100700544008004eb0040
:101b9000580078000000e00004003200f4ff070065
:101ba0000000e00001003d008084eb008a0f54003b
:101bb000f7ff3a00250037000000220018006000ff
:101bc0008004eb0021003200a80490000f003700d1
:101bd00009015100384090000000fb0089007800a6
:101be000a5fd07000000e00007003c002800900071
:101bf0004004980060049800500c98001890a000d1
:101c00008084eb001100370080844400480190007c
:101c1000828f5400eeff39002800900040049800a5
:101c20009800780002c020000281600001003a00a4
:101c30003800900001e8a300020032006004980020
:101c400001003700500c98008004eb000900780078
:101c50004f0578004f04be0000000600889fbe00bc
:101c60008a9fbe0080047800010478002c003700b1
:101c7000c800900068009000808f50000400390078
:101c800008007800b80007000000e00037003500c9
:101c9000004020001800600009003200a100200070
:101ca00009007800a6000700800578000b00e0001e
:101cb00003003200618514000a85450004003700e6
:101cc0000900780094fd0700000578008005eb000e
:101cd00048009000e8009000808050008a8f5000fb
:101ce00002003100010578008005eb000a01780050
:101cf000890078007f000700480090000a0040003b
:101d0000400498000b00e000040032000800780056
:101d100097ff07000000e00014003a008a844400a6
:101d20001904e000d2ff3a00008020001800600093
:101d300006003200080078008dff07008000780060
:101d40000080eb000100e00009003a0001c0200023
:101d5000988060000000eb00050032004800900011
:101d6000600498000000eb00010037000080eb00e9
:101d70004f05be004f04be0000000600889fbe0055
:101d80008a9fbe008c9fbe008e1f780000067800e0
:101d90000104780002007800830478008881b9008b
:101da000020778000e00e000420032000800e00068
:101db000410032008e057800c90090006900900053
:101dc000808f500004003900090078006600070089
:101dd0000000e000290035000040200019006000ec
:101de0000a0032000b017800a10020000c007800ee
:101df00036000700800678000d00e0000600320083
:101e0000610516000a854600040037000b057800be
:101e10008006eb00010037000b05780049009000b8
:101e2000e9009000808050008a8f5000020031004d
:101e3000010578008006eb000a0178008c0078002c
:101e40002c0007008a855500490090000a004000d8
:101e5000c00498000d00e000040032000900780082
:101e600043ff07000000e00004003a000b00e00020
:101e7000020032000a064600cfff37000080200033
:101e800019006000020032000900780038ff0700e6
:101e900000c02000190060000200320049009000dc
:101ea000e00498008b055700110009008885d800d0
:101eb000010037000000eb004f0778004f06be001e
:101ec0004f05be004f04be000000060003003700af
:101ed000b0cf1000050032000201e9008001780057
:101ee0000200e000faff3a0000000500030078005d
:101ef000000006008001780002003700b159780028
:101f00000201e9000200e000fcff3a0000000600c8
:101f1000020037000304e0000600320000017800f0
:101f200002007800b041780081cf5100f9ff3a00fb
:101f3000010037000001eb000200780000000600fd
:101f40000001eb0000027800b041780081cf510021
:101f500001003a00040178000304e000f9ff3a00b0
:101f60000200780000000600889fbe008a1f7800eb
:101f700000047800c8009000680190000000eb00a9
:101f8000828f50003c0039001800780022002900a0
:101f900002016000e20f510007003200012024001e
:101fa0000000e00001003d0001202000008c7000d6
:101fb0000080eb00300037000200260002006000c5
:101fc000820f500009003a0038009000808f5000c6
:101fd0000600390008007800e5fe07008000780060
:101fe0000080eb000100e00023003a0018057800b3
:101ff00000c020000000650018003a00a80490000e
:102000006002200008004000808f540013003a0056
:1020100000202000ec020700200498000000e000ef
:1020200005003a0029049800490498008904e80052
:1020300039049800080037000a60a0000a0c7800f4
:102040004004980001202000808040003104980066
:10205000400c9800500c98000702070028009000e0
:10206000500498003800900060049800000026009a
:10207000180c70000000eb004f0578004f04be0004
:1020800000000600fc874700889fbe008a9fbe00b4
:102090008c9fbe008e1f78000006780080c5b300bc
:1020a00080cf50000a0032007740400080cf5000bf
:1020b0000a0032006940400080cf50000b0032001f
:1020c00010a6210080bf9f00ae0020000a0037004c
:1020d00002a5210082bf9f000600370013a6210041
:1020e00083bf9f008e0020000300370014a621004c
:1020f00084bf9f000e0120001c0278009c0290000b
:102100002c039000bc0390000605be000404be0032
:1021100040c6b30080cf500003003200654040004d
:1021200080cf50000b003a00e00f5200e08f5a00c1
:10213000e00f5b00e08f5b0006003d006000b80030
:102140006011b80004045000858458000605590049
:1021500087855900e80f5700040032004000200036
:10216000f00f57003c003a0001003700300020001b
:10217000e00f5400e08f5c00e00f5d00e08f5d0039
:1021800004003a00dc0890008d0120000100e0000e
:10219000070032008e00e900888060008fba970047
:1021a0008180420091407800f1ef9f007d01200086
:1021b000800078008100e900050033008b05d10024
:1021c0000a85d3008984d3000884d300f9ff37003f
:1021d000089ebe000a96be00130037008d06e90077
:1021e0008e00e900848060000fb9970081004100f3
:1021f0001141780083fd2f008d81410082f7790025
:10220000800178008301e900050033008783d10055
:102210000683d3008582d3000482d300f9ff370000
:10222000049ebe000696be001c0278009c02900030
:102230002c039000bc039000e00f5200e08f5a0086
:10224000e00f5b00e08f5b00930034000d00e000c6
:10225000e2ff3c00900037002c60900081c6b30084
:10226000814f50000b00320006003c000004e000eb
:1022700008003200e6c05000814f500052003a0082
:1022800004003700c1c6b300814f50004e003a0031
:10229000230037000800e00004003a005c089000ca
:1022a0008d0120000000e00007003200110009004d
:1022b0000e84d8000fba9700010042001040780049
:1022c000f0ef9f007d012000110009000e84d8006e
:1022d0000b003700110009000e04d8008d06e9003c
:1022e0008e81b900020454008fb897000884400022
:1022f0009841780082fd2f000d014100837779001d
:10230000000478000800e000020032000d00e00048
:10231000f0ff3c00cfc4de00614db900270037005c
:10232000e00f5400e08f5c0004003a005c0890006d
:102330008d0120000000e000080032006171b9004a
:102340000800be00770207000fba97008000420025
:1023500091407800f1ef9f007d0120006171b9008c
:102360000800be005f0207000c0037006171b90071
:102370000800be004c0207008d06e90080f1b9009c
:10238000020454008fba97000884420098417800f4
:1023900082fd2f000d014100837779000004be000b
:1023a000e00f5000e08f5800020032000d00e00006
:1023b000eeff3c004fcdde008a057800089ebe008f
:1023c0000a96be0034003700e00f5400e08f5c0036
:1023d000e00f5d00e08f5d0004003a005c089000b3
:1023e0008d0120000000e0000a0032006172b90097
:1023f000612bb9000800be000a01be00f40207000c
:102400000fba97008000420091407800f1ef9f00e2
:102410007d0120006172b900612bb9000800be0087
:102420000a01be00e30207000e0037006172b90026
:10243000612bb9000800be000a01be00e8020700d7
:102440008d06e90080f2b900040454008fba9700a9
:10245000088442009842780084fd2f000d0242005b
:1024600085777a00009ebe000296be001c047800ac
:102470009c0490002c059000bc059000e00f5400d7
:10248000e08f5c00e00f5d00e08f5d000200340033
:102490000d00e000e5ff3c00e80f570010003a0097
:1024a0000c1090000038a3000d003200f78f56008a
:1024b00006003e0080fd2f000d004000ef40780038
:1024c00000c3b30080cf50000500320002c3b30048
:1024d00071fd2f008d8040008d06e90082f77800a5
:1024e00078811600120e98006c00900083fd2f007a
:1024f0008f8141008d8041007efe07001c08900006
:10250000dc089000810f500006003d000080500064
:10251000000e98000c1090000040a10000169800da
:102520000f0037000100e0000d003d008c1090000e
:10253000f4806000f08f500009003a007c099000a0
:10254000fc009000810051000c0990008280500036
:10255000008050004240a90001003400000e9800a5
:102560004f0778004f06be004f05be004f04be0067
:10257000cf01b100000006000400fa00889fbe00f1
:102580008a9fbe008c1f7800000478000106780046
:10259000f80d9000780090008085550008089000a4
:1025a0008085550018089000808555002808900007
:1025b00080855500380890008085550048089000b7
:1025c000808555000002220090bf9f000003230079
:1025d000a0bf9f00081090000028a30015003a003b
:1025e0000b00e000130034000b0578008a0478002b
:1025f000e20f55000100360029002000c8019000bc
:1026000009017800ee805700580090000300010097
:10261000500498000000e0008c0032006808900030
:1026200009004000600c9800090555004240a900cf
:10263000eeff3c00780190000200e0000c00340046
:10264000c80190008c007800580090000300010041
:10265000500498008080eb000000e0007c00320015
:10266000e80890007800900000804000600c98001e
:10267000880c90000900e000110034000905780082
:10268000e28f5400010036002a002000c8019000ab
:102690000a017800ec805700580090000300010008
:1026a000500498000000e0006800320068089000c4
:1026b0000a004000600c98008a845400edff370047
:1026c000180990000200e0000c003400c8019000de
:1026d000e8009000580090000300010050049800aa
:1026e0008080eb000000e00059003200e808900014
:1026f0001808900000804000600c9800a80c900022
:102700000900e0001100340009057800e28f540050
:10271000010036002a002000c80190000a0178005c
:10272000ec8057005800900003000100500498000e
:102730000000e00045003200680890000a004000f8
:10274000600c98008a845400edff3700380990002f
:102750000200e0000e003400e8009000180890002d
:1027600080804000c80190005800900003000100e4
:10277000500498008080eb000000e000340032003c
:10278000e80890003808900000804000600c980035
:10279000c80c90000900e000110034000905780021
:1027a000e28f5400010036002a002000c80190008a
:1027b0000a017800ec8057005800900003000100e7
:1027c000500498000000e0002000320068089000eb
:1027d0000a004000600c98008a845400edff370026
:1027e000081090008000eb000028a30018003200c1
:1027f0000b00e000160034008b0478000905780017
:10280000e28f5400010036002a002000c801900029
:102810000a017800ee805700580090000300010084
:10282000500498000000e0000800320068089000a2
:102830000a004000600c98008a8454004240a900bd
:10284000eeff3c008000eb00010037008080eb00d1
:10285000010078004f0678004f05be004f04be000f
:102860000080fa0000000600010878000000060061
:10287000e04d210062003700881f780088ae2100fb
:102880001804e00003003a00f9ff070020c0b3007d
:10289000004c78004f04780000000600889fbe00be
:1028a0000004780008007800b1fc0700800478007c
:1028b0000004200018006000020032002800900090
:1028c0005c0007000000eb002004980038409000f6
:1028d0000004e000050035000000fb0033fa0700ab
:1028e0000000e000010032008084eb00181090002e
:1028f0000000e0000800320035fa07000000e000a8
:10290000010032008084eb0018109000490007009d
:102910000000eb0010149800000820001800600070
:10292000150032000001eb006000b8000202d00088
:10293000039e210003024200940f140005003a0098
:102940000000400081804800008041000008eb004a
:102950000600370061004000e08048000201e80006
:10296000e80f5000e08f5800f0ff3a0008007800b0
:10297000300007000e003700000c780000c0eb00ac
:1029800030449800600220000800400020049800b5
:102990004004980050049800400c9800600498008f
:1029a000500c98007004980076004400000c9800c9
:1029b000090078004f04be0000000600881f780060
:1029c0000004eb006140b800e2ff2f00f3ff2f008e
:1029d000d7000700e29e210080004100110078002e
:1029e0000000e00001003200acff07000804e8002e
:1029f000e80f5400f3ff3a004f047800000006008f
:102a0000010020000100e000090032000100800008
:102a10000100e000060032008100e90001008800aa
:102a20008100d00002008000828040008008780091
:102a3000000006000000e0002f003200c001780016
:102a4000e38f51002c0036000308a3002a003a004f
:102a500001d780000100e00002003200810f500029
:102a6000040031001100980000d7880016003700dc
:102a700082007800110190000200e00002003200a4
:102a8000800f5100faff3900110278008482400063
:102a9000850f500018003900808f520003003a0063
:102aa0008308420001007800070037000200e000c0
:102ab0000300320083014000830f51000e003900f3
:102ac0001200980090009800900090000100e00033
:102ad0000900320010014000828f500006003a00c9
:102ae000e2ad21000009eb0010017800110841005f
:102af000910090001100980000000600889fbe0021
:102b000000047800f1d680000100e00002003200ed
:102b1000010078000d00370001d7800000ae2100d1
:102b200004003700910f5400250036000180e800b2
:102b3000910090000100e000faff3a001000370019
:102b4000920f54001e0036000280e8001001780049
:102b50000200e000faff3a001101780001d780007e
:102b600000ae210004003700910f5400140036001d
:102b70000180e80091009000828f5000faff3a0037
:102b800059d78000888f54000100310088047800f4
:102b900009007800360007000000e00004003a0059
:102ba000888f5400050032008904d100f5ff3700fa
:102bb000091878009fff0700d2ff37000000eb00e4
:102bc0004f04be0000000600881f78006304400028
:102bd0000800a1008000eb00800f540021003600a7
:102be000e30f540001003e00480020000800780078
:102bf000c2ff07008000eb000000e0001900320077
:102c0000900078009101780064815100880f510094
:102c1000030031001101900002087800070037001e
:102c2000088140000208780091019000130198008b
:102c3000100178001109140088087800100178004c
:102c40000000eb000200e00004003200920190005e
:102c50000300e000010032000280e800f0d68800a6
:102c60008180e800010078004f0478000000060031
:102c7000800078000000eb000100e0000500340057
:102c8000010078005bf90700e10f400001003a0005
:102c90000000eb000000060000c0da0000000600a3
:102ca00000c0da0000000600839f68000100e00019
:102cb00002003d0060001000e08018000300e0000a
:102cc00002003d0060011100e081190005000700cd
:102cd0004f00e00002003b0060001000e0801800a0
:102ce000000006006022b800060220000000d000ac
:102cf0008180d2000482d2008582d2000000a00030
:102d00000202520083825a00030031000202420094
:102d100083824a000000a1000603e900f3ff3a00a5
:102d200000000600efff07000400be0000000600e0
:102d3000020ab900001bb9000200b800810042007d
:102d40008100430000000600889fbe008a9fbe00ed
:102d500030044200b0844a0030054b0090854b009f
:102d60006000b1000898be000a90be000440e10077
:102d700005c8e10006d0e10007d8e10002003100fb
:102d8000680040001008e8004f05be004f04be0078
:102d900000000600889fbe008a9fbe0010047800d5
:102da0009004900020059000b00590000418540095
:102db00005985c0006185d0007985d001100200072
:102dc0000440e10005c8e10006d0e10007d8e100b9
:102dd000010039008000eb00108810004f05be0094
:102de0004f04be00000006001200fa00889fbe00db
:102df0008a9fbe008c9fbe00e0b79f00f1b79f0086
:102e000082bf9f0093bf9f000605be000404be0062
:102e10000000eb00d0b79f00c0b79f00b0b79f0085
:102e2000a0b79f0090b79f000006eb005fb197002e
:102e3000cfb09700820141003fb097000200e00050
:102e400004003d00370007007e805700beff0700ea
:102e500003003700330007007e805700cdff0700d6
:102e6000dfb697000d00e0000c0035006fb2970050
:102e7000ffb297000fbb97009fbb97001000200088
:102e8000010020006011b80000027200818272000f
:102e900002037300838373001b0007000c06e80025
:102ea00001042000810f5600e0ff3a000d00e00011
:102eb00004003d000802be000a03be007e805700e9
:102ec000a1ff07005fa897000000e00005003a009e
:102ed0001fb29700afb297003fb39700cfb39700f0
:102ee000090007006fb09700ffb097000fb9970077
:102ef0009fb997004f06be004f05be004f04be00ad
:102f00000080fa0000000600010007000000060033
:102f1000a4b79f00b5b79f00c6b79f00d7b79f0063
:102f2000000006004f09de0082817100b3b79f00e8
:102f30004f01de008180400082807000a1b79f00b9
:102f40008fb097004f09de000000400002007000c3
:102f500090b79f007fa897004f01de00818040005e
:102f60008280700081b79f000d0007004f3ade009d
:102f70000000400004007000f0af9f000800070050
:102f80000402420085824a0006034b0087834b00ff
:102f9000dfff07000802be000a03be0000000600b3
:102fa0002fb29700bfb297004fb39700dfb39700df
:102fb00000000600881f780018002000881f780095
:102fc00089ff07008f87e9004f04780000000600a2
:102fd000801feb0084ff07008f87e90000000600d8
:102fe000889fbe008a9fbe00e00f5000e08f58000f
:102ff000e00f5900e08f59000c003d006044b8001c
:103000006055b8000000540081805c0002015d0042
:1030100083815d00180020001500070008003d00b6
:10302000180007000004eb00050037000004eb0067
:103030000f00070002003d001200070018002000ea
:10304000dcff07000800e000060032006022b80044
:103050006033b8000000520081805a0002015b001a
:1030600083815b004f05be004f04be0000000600d8
:10307000e00f5200e08f5a00e00f5b00e08f5b0032
:10308000000006006044b8006055b8000402540017
:1030900085825c0006035d0087835d0000000600fa
:1030a000889fbe008a9fbe008c1f7800e00f5000f2
:1030b000e08f5800e00f5900e08f59000d003d00ef
:1030c0006044b8006055b8000000540081805c0086
:1030d00002015d0083815d001c0020000820e100ea
:1030e00009a8e1000ab0e1000bb8e1000d003d00c5
:1030f000080037000006eb00e00f5200e08f5a0096
:10310000e00f5b00e08f5b0006003d006044b8000c
:103110006055b8000402540085825c0006035d001f
:1031200087835d00aaff07000c00e0000600320064
:103130006022b8006033b8000000520081805a005d
:1031400002015b0083815b004f0678004f05be00e3
:083150004f04be000000060060
:020000040000fa
:1031580000c100008140000001c000008041000063
:1031680001c000008041000000c100008140000053
:1031780001c000008041000000c100008140000043
:1031880000c100008140000001c000008041000033
:1031980001c000008041000000c100008140000023
:1031a80000c100008140000001c000008041000013
:1031b80000c100008140000001c000008041000003
:1031c80001c000008041000000c1000081400000f3
:1031d80001c000008041000000c1000081400000e3
:1031e80000c100008140000001c0000080410000d3
:1031f80000c100008140000001c0000080410000c3
:1032080001c000008041000000c1000081400000b2
:1032180000c100008140000001c0000080410000a2
:1032280001c000008041000000c100008140000092
:1032380001c000008041000000c100008140000082
:1032480000c100008140000001c000008041000072
:1032580001c000008041000000c100008140000062
:1032680000c100008140000001c000008041000052
:1032780000c100008140000001c000008041000042
:1032880001c000008041000000c100008140000032
:1032980000c100008140000001c000008041000022
:1032a80001c000008041000000c100008140000012
:1032b80001c000008041000000c100008140000002
:1032c80000c100008140000001c0000080410000f2
:1032d80000c100008140000001c0000080410000e2
:1032e80001c000008041000000c1000081400000d2
:1032f80001c000008041000000c1000081400000c2
:1033080000c100008140000001c0000080410000b1
:1033180001c000008041000000c1000081400000a1
:1033280000c100008140000001c000008041000091
:1033380000c100008140000001c000008041000081
:1033480001c000008041000000c100008140000071
:1033580000c00000c1010000c303000002c2000059
:10336800c606000007c7000005c50000c404000029
:10337800cc0c00000dcd00000fcf0000ce0e0000d9
:103388000aca0000cb0b0000c909000008c80000e9
:10339800d818000019d900001bdb0000da1a000059
:1033a8001ede0000df1f0000dd1d00001cdc000029
:1033b80014d40000d5150000d717000016d6000059
:1033c800d212000013d3000011d10000d010000069
:1033d800f030000031f1000033f30000f232000059
:1033e80036f60000f7370000f535000034f4000029
:1033f8003cfc0000fd3d0000ff3f00003efe0000d9
:10340800fa3a00003bfb000039f90000f8380000e8
:1034180028e80000e9290000eb2b00002aea000058
:10342800ee2e00002fef00002ded0000ec2c000028
:10343800e424000025e5000027e70000e626000058
:1034480022e20000e3230000e121000020e0000068
:10345800a060000061a1000063a30000a262000058
:1034680066a60000a7670000a565000064a4000028
:103478006cac0000ad6d0000af6f00006eae0000d8
:10348800aa6a00006bab000069a90000a8680000e8
:1034980078b80000b9790000bb7b00007aba000058
:1034a800be7e00007fbf00007dbd0000bc7c000028
:1034b800b474000075b5000077b70000b676000058
:1034c80072b20000b3730000b171000070b0000068
:1034d8005090000091510000935300005292000058
:1034e8009656000057970000559500009454000028
:1034f8009c5c00005d9d00005f9f00009e5e0000d8
:103508005a9a00009b5b00009959000058980000e7
:1035180088480000498900004b8b00008a4a000057
:103528004e8e00008f4f00008d4d00004c8c000027
:103538004484000085450000874700004686000057
:103548008242000043830000418100008040000067
:103558004c6500006420000054650000737400008e
:103568000d00000057680000697400006520000025
:1035780054650000737400000d00000052650000df
:103588006420000054650000737400000d00000002
:10359800426c00007565000020540000657300004f
:1035a800740d00000047000072650000656e0000a1
:1035b8002054000065730000740d000000530000e3
:1035c80070610000636500000d0000004c450000bc
:1035d8004420000054650000737400002046000079
:1035e800696e0000697300006865000064210000ce
:1035f8000d0000004c450000442000004f5600001c
:10360800455200000d000000526500006c6100008a
:10361800794f00006e5400006573000074200000ac
:103628004f560000455200000d0000005265000092
:103638006c610000796f0000666600005465000048
:1036480073740000204f000056450000520d000022
:103658000047000046430000492000004f6e00006c
:10366800204f000056450000520d000000470000a2
:1036780046430000492000006f66000066200000f5
:103688005465000073740000204f00005645000088
:10369800520d000000000000706100006765000026
:1036a800204900006e740000657200007275000009
:1036b8007074000000700000616700006520000061
:1036c8005374000061720000740000004845000057
:1036d80052450000206900007320000031320000cc
:1036e8005620000041440000432000006973000098
:1036f80020250000640d00000a000000a508000055
:1037080041000000064e000002440000a508000029
:10371800410000000e4e0000044e0000a508000005
:10372800410000001e4e0000086200004f4e0000dd
:103738005f520000454c0000415900000d00000098
:103748004f460000465f0000524500004c41000013
:10375800590d00000000000057610000726300006e
:10376800684400006f670000204500006e6100009b
:0c377800626c0000650d00000000000005
:020000040000fa
:103784000000fa00048ea800048ea800048ea8008d
:10379400048ea800048ea800048ea900048ea9003b
:1037a400048ea900048ea900048ea900048ea90029
:1037b400048ea900048ea900048ea900048ea8001a
:1037c400048ea800048ea800048ea800048ea8000d
:1037d400048ea900048ea900048ea900048ea900f9
:1037e400048ea900048ea900048ea900048ea900e9
:1037f400048ea900048ea800048ea800048ea800dc
:10380400048ea800048ea800048ea900048ea900ca
:10381400048ea900048ea900048ea900048ea900b8
:10382400048ea900048ea900048ea900048ea800a9
:10383400048ea800048ea800048ea800048ea8009c
:10384400048ea900048ea900048ea900048ea90088
:10385400048ea900048ea900048ea900048ea90078
:10386400048ea900048ea800048ea800048ea8006b
:10387400048ea800048ea800048ea900048ea9005a
:10388400048ea900048ea900048ea900048ea90048
:10389400048ea900048ea900048ea900048ea80039
:1038a400048ea800048ea800048ea800048ea8002c
:1038b400048ea900048ea900048ea900048ea90018
:1038c400048ea900048ea900048ea900048ea90008
:1038d400048ea900048ea800048ea800048ea800fb
:1038e400048ea800048ea800048ea900048ea900ea
:1038f400048ea900048ea900048ea900048ea900d8
:10390400048ea900048ea900048ea900048ea800c8
:10391400048ea800048ea800048ea800048ea800bb
:10392400048ea900048ea900048ea900048ea900a7
:10393400048ea900048ea900048ea900048ea90097
:10394400048ea900048ea800048ea800048ea8008a
:10395400048ea800048ea800048ea900048ea90079
:10396400048ea900048ea900048ea900048ea90067
:10397400048ea900048ea900048ea900048ea80058
:10398400048ea800048ea800048ea800048ea8004b
:10399400048ea900048ea900048ea900048ea90037
:1039a400048ea900048ea900048ea900048ea90027
:1039b400048ea900048ea800048ea800048ea8001a
:1039c400048ea800048ea800048ea900048ea90009
:1039d400048ea900048ea900048ea900048ea900f7
:1039e400048ea900048ea900048ea900048ea800e8
:1039f400048ea800048ea800048ea800048ea800db
:103a0400048ea900048ea900048ea900048ea900c6
:103a1400048ea900048ea900048ea900048ea900b6
:103a2400048ea900048ea800048ea800048ea800a9
:103a3400048ea800048ea800048ea900048ea90098
:103a4400048ea900048ea900048ea900048ea90086
:103a5400048ea900048ea900048ea900048ea80077
:103a6400048ea800048ea800048ea800048ea8006a
:103a7400048ea900048ea900048ea900048ea90056
:103a8400048ea900048ea900048ea900048ea90046
:103a9400048ea900048ea800048ea800048ea80039
:103aa400048ea800048ea800048ea900048ea90028
:103ab400048ea900048ea900048ea900048ea90016
:103ac400048ea900048ea900048ea900048ea80007
:103ad400048ea800048ea800048ea800048ea800fa
:103ae400048ea900048ea900048ea900048ea900e6
:103af400048ea900048ea900048ea900048ea900d6
:103b0400048ea900048ea800048ea800048ea800c8
:103b1400048ea800048ea800048ea800048ea800b9
:103b2400048ea800048ea800048ea900048ea900a7
:103b3400048ea900048ea900048ea900048ea80096
:103b4400048ea800048ea800048ea800048ea80089
:103b5400048ea800048ea800048ea800048ea80079
:103b6400048ea900048ea900048ea900048ea90065
:103b7400048ea900048ea800048ea800048ea80058
:103b8400048ea800048ea800048ea800048ea80049
:103b9400048ea800048ea800048ea900048ea90037
:103ba400048ea900048ea900048ea900048ea80026
:103bb400048ea800048ea800048ea800048ea80019
:103bc400048ea800048ea800048ea800048ea80009
:103bd400048ea900048ea900048ea900048ea900f5
:103be400048ea900048ea800048ea800048ea800e8
:103bf400048ea800048ea800048ea800048ea800d9
:103c0400048ea800048ea800048ea900048ea900c6
:103c1400048ea900048ea900048ea900048ea800b5
:103c2400048ea800048ea800048ea800048ea800a8
:103c3400048ea800048ea800048ea800048ea80098
:103c4400048ea900048ea900048ea900048ea90084
:103c5400048ea900048ea800048ea800048ea80077
:103c6400048ea800048ea800048ea800048ea80068
:103c7400048ea800048ea800048ea900048ea90056
:103c8400048ea900048ea900048ea900048ea80045
:103c9400048ea800048ea800048ea800048ea80038
:103ca400048ea800048ea800048ea800048ea80028
:103cb400048ea900048ea900048ea900048ea90014
:103cc400048ea9000080fa00000006000000fa003b
:103cd400048ea800048ea800048ea800048ea800f8
:103ce400048ea800048ea800048ea800048ea800e8
:103cf400048ea800048ea900048ea900048ea900d5
:103d0400048ea900048ea900048ea800048ea800c5
:103d1400048ea800048ea800048ea800048ea800b7
:103d2400048ea800048ea800048ea800048ea900a6
:103d3400048ea900048ea900048ea900048ea90093
:103d4400048ea800048ea800048ea800048ea80087
:103d5400048ea800048ea800048ea800048ea80077
:103d6400048ea800048ea900048ea900048ea90064
:103d7400048ea900048ea900048ea800048ea80055
:103d8400048ea800048ea800048ea800048ea80047
:103d9400048ea800048ea800048ea800048ea90036
:103da400048ea900048ea900048ea900048ea90023
:103db400048ea800048ea800048ea800048ea80017
:103dc400048ea800048ea800048ea800048ea80007
:103dd400048ea800048ea900048ea900048ea900f4
:103de400048ea900048ea900048ea800048ea800e5
:103df400048ea800048ea800048ea800048ea800d7
:103e0400048ea800048ea800048ea800048ea900c5
:103e1400048ea900048ea900048ea900048ea900b2
:103e2400048ea800048ea800048ea800048ea800a6
:103e3400048ea800048ea800048ea800048ea80096
:103e4400048ea800048ea900048ea900048ea90083
:103e5400048ea900048ea900048ea800048ea80074
:103e6400048ea800048ea800048ea800048ea80066
:103e7400048ea800048ea800048ea800048ea90055
:103e8400048ea900048ea900048ea900048ea90042
:103e9400048ea800048ea800048ea800048ea80036
:103ea400048ea800048ea900048ea900048ea90023
:103eb400048ea900048ea900048ea900048ea90012
:103ec400048ea900048ea900048ea800048ea80004
:103ed400048ea800048ea800048ea800048ea900f5
:103ee400048ea900048ea900048ea900048ea900e2
:103ef400048ea900048ea900048ea900048ea900d2
:103f0400048ea800048ea800048ea800048ea800c5
:103f1400048ea800048ea900048ea900048ea900b2
:103f2400048ea900048ea900048ea900048ea900a1
:103f3400048ea900048ea900048ea800048ea80093
:103f4400048ea800048ea800048ea800048ea90084
:103f5400048ea900048ea900048ea900048ea90071
:103f6400048ea900048ea900048ea900048ea90061
:103f7400048ea800048ea800048ea800048ea80055
:103f8400048ea800048ea900048ea900048ea90042
:103f9400048ea900048ea900048ea900048ea90031
:103fa400048ea900048ea900048ea800048ea80023
:103fb400048ea800048ea800048ea800048ea90014
:103fc400048ea900048ea900048ea900048ea90001
:103fd400048ea900048ea900048ea900048ea900f1
:103fe400048ea800048ea800048ea800048ea800e5
:103ff400048ea800048ea900048ea900048ea900d2
:10400400048ea900048ea900048ea900048ea900c0
:10401400048ea900048ea900048ea800048ea800b2
:10402400048ea800048ea800048ea800048ea900a3
:10403400048ea900048ea900048ea900048ea90090
:10404400048ea900048ea900048ea900048ea90080
:10405400048ea800048ea800048ea800048ea80074
:10406400048ea800048ea900048ea900048ea90061
:10407400048ea900048ea900048ea900048ea90050
:10408400048ea900048ea900048ea800048ea80042
:10409400048ea800048ea800048ea800048ea90033
:1040a400048ea900048ea900048ea900048ea90020
:1040b400048ea900048ea900048ea900048ea90010
:1040c400048ea800048ea800048ea800048ea80004
:1040d400048ea800048ea900048ea900048ea900f1
:1040e400048ea900048ea900048ea900048ea900e0
:1040f400048ea900048ea900048ea800048ea800d2
:10410400048ea800048ea800048ea800048ea900c2
:10411400048ea900048ea900048ea900048ea900af
:10412400048ea900048ea900048ea900048ea9009f
:10413400048ea800048ea800048ea800048ea80093
:10414400048ea800048ea900048ea900048ea90080
:10415400048ea900048ea900048ea900048ea9006f
:10416400048ea900048ea900048ea800048ea80061
:10417400048ea800048ea800048ea800048ea90052
:10418400048ea900048ea900048ea900048ea9003f
:10419400048ea900048ea900048ea900048ea9002f
:1041a400048ea800048ea800048ea800048ea80023
:1041b400048ea800048ea900048ea900048ea90010
:1041c400048ea900048ea900048ea900048ea900ff
:1041d400048ea900048ea900048ea800048ea800f1
:1041e400048ea800048ea800048ea800048ea900e2
:1041f400048ea900048ea900048ea900048ea900cf
:10420400048ea900048ea900048ea900048ea900be
:104214000080fa00000006000000fa00048ea800e6
:10422400048ea800048ea800048ea800048ea800a2
:10423400048ea900048ea900048ea900048ea9008e
:10424400048ea900048ea900048ea900048ea9007e
:10425400048ea900048ea800048ea800048ea80071
:10426400048ea800048ea800048ea900048ea90060
:10427400048ea900048ea900048ea900048ea9004e
:10428400048ea900048ea900048ea900048ea8003f
:10429400048ea800048ea800048ea800048ea80032
:1042a400048ea900048ea900048ea900048ea9001e
:1042b400048ea900048ea900048ea900048ea9000e
:1042c400048ea900048ea800048ea800048ea80001
:1042d400048ea800048ea800048ea900048ea900f0
:1042e400048ea900048ea900048ea900048ea900de
:1042f400048ea900048ea900048ea900048ea800cf
:10430400048ea800048ea800048ea800048ea800c1
:10431400048ea900048ea900048ea900048ea900ad
:10432400048ea900048ea900048ea900048ea9009d
:10433400048ea900048ea800048ea800048ea80090
:10434400048ea800048ea800048ea900048ea9007f
:10435400048ea900048ea900048ea900048ea9006d
:10436400048ea900048ea900048ea900048ea8005e
:10437400048ea800048ea800048ea800048ea80051
:10438400048ea900048ea900048ea900048ea9003d
:10439400048ea900048ea900048ea900048ea9002d
:1043a400048ea900048ea800048ea800048ea80020
:1043b400048ea800048ea800048ea900048ea9000f
:1043c400048ea900048ea900048ea900048ea900fd
:1043d400048ea900048ea900048ea900048ea800ee
:1043e400048ea800048ea800048ea800048ea800e1
:1043f400048ea800048ea800048ea800048ea800d1
:10440400048ea900048ea900048ea900048ea900bc
:10441400048ea900048ea800048ea800048ea800af
:10442400048ea800048ea800048ea800048ea800a0
:10443400048ea800048ea800048ea900048ea9008e
:10444400048ea900048ea900048ea900048ea8007d
:10445400048ea800048ea800048ea800048ea80070
:10446400048ea800048ea800048ea800048ea80060
:10447400048ea900048ea900048ea900048ea9004c
:10448400048ea900048ea800048ea800048ea8003f
:10449400048ea800048ea800048ea800048ea80030
:1044a400048ea800048ea800048ea900048ea9001e
:1044b400048ea900048ea900048ea900048ea8000d
:1044c400048ea800048ea800048ea800048ea80000
:1044d400048ea800048ea800048ea800048ea800f0
:1044e400048ea900048ea900048ea900048ea900dc
:1044f400048ea900048ea800048ea800048ea800cf
:10450400048ea800048ea800048ea800048ea800bf
:10451400048ea800048ea800048ea900048ea900ad
:10452400048ea900048ea900048ea900048ea8009c
:10453400048ea800048ea800048ea800048ea8008f
:10454400048ea800048ea800048ea800048ea8007f
:10455400048ea900048ea900048ea900048ea9006b
:10456400048ea900048ea800048ea800048ea8005e
:10457400048ea800048ea800048ea800048ea8004f
:10458400048ea800048ea800048ea900048ea9003d
:10459400048ea900048ea900048ea900048ea8002c
:1045a400048ea800048ea800048ea800048ea8001f
:1045b400048ea900048ea900048ea900048ea9000b
:1045c400048ea900048ea900048ea900048ea900fb
:1045d400048ea900048ea800048ea800048ea800ee
:1045e400048ea800048ea800048ea900048ea900dd
:1045f400048ea900048ea900048ea900048ea900cb
:10460400048ea900048ea900048ea900048ea800bb
:10461400048ea800048ea800048ea800048ea800ae
:10462400048ea900048ea900048ea900048ea9009a
:10463400048ea900048ea900048ea900048ea9008a
:10464400048ea900048ea800048ea800048ea8007d
:10465400048ea800048ea800048ea900048ea9006c
:10466400048ea900048ea900048ea900048ea9005a
:10467400048ea900048ea900048ea900048ea8004b
:10468400048ea800048ea800048ea800048ea8003e
:10469400048ea900048ea900048ea900048ea9002a
:1046a400048ea900048ea900048ea900048ea9001a
:1046b400048ea900048ea800048ea800048ea8000d
:1046c400048ea800048ea800048ea900048ea900fc
:1046d400048ea900048ea900048ea900048ea900ea
:1046e400048ea900048ea900048ea900048ea800db
:1046f400048ea800048ea800048ea800048ea800ce
:10470400048ea900048ea900048ea900048ea900b9
:10471400048ea900048ea900048ea900048ea900a9
:10472400048ea900048ea800048ea800048ea8009c
:10473400048ea800048ea800048ea900048ea9008b
:10474400048ea900048ea900048ea900048ea90079
:10475400048ea900048ea900048ea9000080fa002a
:10476400000006000200fa000000eb00000f7800d1
:104774000f003700048ea800048ea800048ea80041
:10478400048ea800048ea800048ea800048ea8003d
:10479400048ea800048ea800048ea900048ea9002b
:1047a400048ea900048ea900048ea9001e0fe8003f
:1047b4001e007800f70f5000eeff34000080fa006e
:1047c400000006000200fa000000eb00000f780071
:1047d4000f003700048ea800048ea800048ea800e1
:1047e400048ea800048ea800048ea900048ea900db
:1047f400048ea900048ea900048ea900048ea900c9
:10480400048ea900048ea900048ea9001e0fe800de
:104814001e007800f70f5000eeff34000080fa000d
:10482400000006000200fa000000eb00000f780010
:10483400170037001e007800ec0f500002003c0007
:1048440022fd0700110037001e007800ec0f500015
:10485400050034001e007800ef0f500002003c00f9
:10486400c0ff0700090037001e007800ef0f50005a
:10487400050034001e007800f20f500002003c00d6
:10488400d0ff070001003700b6ff07001e0fe80045
:104894001e007800f70f5000e6ff34000080fa0095
:1048a400000006000a00fa00c0aa29008ef20700e0
:1048b40060ab29008cf207000000eb00000f7800c9
:1048c40002003700a7ff07001e0fe8001e00780053
:1048d400f70f5000fbff3400803e2000250f070037
:1048e40020ac290080f207000000eb0010079800bc
:1048f4000400370048fe07001e0090000000e80096
:10490400100798001e009000f70f5000f9ff3400c4
:10491400803e2000170f0700c0ac290072f2070088
:104924000000eb00200798000400370094fb070008
:104934002e0090000000e800200798002e00900050
:10494400f70f5000f9ff3400803e2000090f0700e4
:1049540070ad290064f207000000eb0030079800f6
:1049640004003700d9fc07003e0090000000e80076
:10497400300798003e009000f70f5000f9ff340014
:10498400803e2000fb0e070030ae290056f20700df
:104994000000eb00400798000400370089ff07007f
:1049a4004e0090000000e800400798004e00900080
:1049b400f70f5000f9ff3400803e2000ed0e070091
:1049c400a0ae290048f207000080fa0000000600ab
:1049d4000200fa000000eb00000f78001700370017
:1049e4001e007800ec0f500002003c0064fb07003e
:1049f400110037001e007800ec0f50000500340051
:104a04001e007800ef0f500002003c0055ff070025
:104a1400090037001e007800ef0f50000500340035
:104a24001e007800f20f500002003c0065ff0700f2
:104a3400010037004bff07001e0fe8001e0078003e
:104a4400f70f5000e6ff34000080fa000000060073
:104a54000000fa0001eca8000080fa000000060043
:104a64000400fa00000f7800110798001e00780077
:104a7400e30f500014003200e30f500005003e0025
:104a8400e10f50000a003200e20f50000b00320028
:104a940019003700e50f500011003200e50f5000f7
:104aa4000c003900e60f50001000320012003700ed
:104ab4009e009000316188000f0037009e00900036
:104ac400316288000c0037009e009000316388003a
:104ad400090037009e00900031648800060037000a
:104ae4009e00900031658800030037009e0090000e
:104af40031668800000000000080fa000000060013
:104b04000000fa0061e3a8000080fa00000006003b
:104b14000000fa0061e3a9000080fa00000006002a
:104b24000000fa006023a8000080fa0000000600dc
:104b34000000fa006023a9000080fa0000000600cb
:104b44000200fa00c0a22100104078000004e00036
:104b54004700320020a4210031c0b300014878008e
:104b6400d0a2210011c0b30001487800e10d070074
:104b7400d0a22100104078000080fb00e10f50001b
:104b840003003200e20f50002700320038003700e3
:104b940000b52900350e07000000eb00000f780077
:104ba400170037001e007800ec0f500002003c0094
:104bb40099fd0700110037001e007800ec0f50002b
:104bc400050034001e007800ef0f500002003c0086
:104bd400e4fe0700090037001e007800ef0f5000c4
:104be400050034001e007800f20f500002003c0063
:104bf400f4fe070001003700dafe07001e0fe8008c
:104c04001e007800f70f5000e6ff34000004210076
:104c1400411f200001087800d0a2210021c0b30068
:104c240001487800120037000004210010007800c9
:104c34000000e0000d003a00f0b529000b0e07005b
:104c4400f8fe0700c0a221008040eb000148780074
:104c540020a421008040eb0001487800d0a221006c
:104c64008040eb000148780001003700000000009c
:104c74000080fa00000006000000fa0020a42100d1
:104c8400104078000080fb00e10f50000300320068
:104c9400e20f5000250032006a00370030a42100e2
:104ca400104078000080fb00e20f50000c0032003e
:104cb400e20f500003003c00e10f500004003200fa
:104cc4001a003700e30f50001600320017003700b7
:104cd40030a4210021c0b30001487800130037003c
:104ce400e0a221008040eb0001487800e0a221000e
:104cf40011c0b3000148780081be23005000200099
:104d040057ff070052ff0700b0ad21008040eb00c1
:104d14000148780030a4210031c0b3000148780074
:104d240002003700520007000000000060ae2100be
:104d3400104078000080fb00cf80de00920020004d
:104d440003002000820f5000838f58003a003e0079
:104d5400000601003a003700080037000c00370055
:104d640011003700160037001b0037002000370001
:104d740024003700280037002b003700280e0700d6
:104d840060ae21008040eb00014878002d00370020
:104d940010002000290e070060ae21008040eb00c7
:104da40001487800270037000000eb00230e0700bd
:104db40060ae21008040eb000148780021003700fc
:104dc400100020002b0e070060ae21008040eb0095
:104dd400014878001b0037000000eb00250e070097
:104de40060ae21008040eb000148780015003700d8
:104df4002e0e070060ae21008040eb0001487800d1
:104e0400100037002e0e070060ae21008040eb003a
:104e1400014878000b00370060ae21008040eb00b1
:104e2400014878000700370060ae21008040eb00a5
:104e3400014878000300370000000000010037003b
:104e4400000000000080fa00000006000000fa00e4
:104e54003bff070088ff07000080fa0000000600ff
:104e64000000fa00e40007000080fa0000000600d9
:104e74000000fa000500070086000700c2000700d2
:104e8400d3fe07000080fa00000006000600fa00c6
:104e9400b0ad2100104078000080fb000000e0006d
:104ea40003003200e10f50000a00320054003700c2
:104eb40013ff07001aff070000042100210320004c
:104ec40011009800b0ad210011c0b3000148780072
:104ed4004b00370000042100100090000000e000a7
:104ee40046003a0012ff0700211a800021079800ab
:104ef400ae009000811f7800a0b62900801f7800c2
:104f04003ef10700e4875700ae00900060e7200000
:104f1400808f50000a003600ae009000e0f62000ba
:104f2400808f500006003e00800321001000900096
:104f34008000e8008003210011009800250037005c
:104f4400ae00900090c02000808f50000a00360010
:104f5400ae00900080da2000808f500006003e00f2
:104f640080032100200090008000e80080032100dd
:104f74002100980017003700ae009000d09920005f
:104f8400808f50000a003600ae009000b0b32000bd
:104f9400808f500006003e00800321003000900006
:104fa4008000e800800321003100980009003700e8
:104fb400ae00900030fb2000808f500005003600ca
:104fc40080032100100078008000e80080032100a5
:104fd40001087800cefe0700b0ad21008040eb0050
:104fe40001487800c0ad2100104078008040e800fe
:104ff400c0ad210001487800010037000000000026
:10500400c0ad21009040780020c3b30080cf500091
:105014001e003a000000eb00000f78000000eb00d7
:105024001007980011003700810321001e00900032
:1050340000004000008040009000780082032100be
:105044001e007800000040000000410010007800bd
:10505400808f5000020034009e009000010f780001
:105064001e0090000000e800100798001e00900049
:10507400e30f5000ecff34009e00780081d18800db
:10508400c0ad21008040eb00014878000080fa00a8
:10509400000006001800fa0000042100200090001f
:1050a4000000e00036003a00a0ad21001040780076
:1050b4000080fb00e10f50000c003200e20f5000b2
:1050c400130032000000e0001a003a0021b8290061
:1050d40007000900315f78008e00b1008e0078006f
:1050e40080002000d1010700160037006801470046
:1050f400a1b8290007000900315978006800470069
:105104008000780080002000c80107000d003700ef
:105114007001470021b929000700090031597800be
:10512400700047008000780080002000bf01070065
:1051340004003700a0ad21008040eb000148780056
:1051440000000000a0ad2100104078000080fb00aa
:105154008000e80030002000000178001100090000
:105164008200d8008000fd0080407800a0ad2100be
:105174000148780000042100c11220002100980099
:105184000080fa00000006000000fa00000421007c
:10519400300090000000e00015003a00d0ad21007e
:1051a400104078000080fb00e10f5000080032003e
:1051b400e20f5000080032000000e0000800320056
:1051c400d0ad21008040eb00014878000500370095
:1051d4000000000003003700000000000100370059
:1051e4000000000000042100410620003100980066
:1051f4000080fa00000006000000fa0002003700f8
:10520400870607000e000700b00607000004e00050
:10521400fbff3a008200070003003700e6010700a5
:10522400004078004c0107000e0207000000e00077
:10523400faff3a004c0107000080fa000000060063
:105244000200fa00004f7800900521001040780019
:105254000080fb000000e00003003200e10f50007a
:105264001b0032002b00370050c5b3009e4078006d
:1052740080cf50000f003a006005210010407800f4
:105284000081fb0090052100104078008080fb0025
:105294004811dd0001014100a10521008100410008
:1052a4009e4878008040e80090052100014878007d
:1052b40059003700800521008040eb000148780048
:1052c400900521008040eb0001487800520037002f
:1052d40060052100104078000081fb00900521004a
:1052e400104078008080fb004811dd00010141007e
:1052f400a1052100810041009e4878008040e8001b
:105304009005210001487800800521001e4878009e
:105314004100370060052100104078000081fb0047
:1053240090052100104078008080fb004811dd00ca
:1053340001014100a1052100810041009e4878003f
:105344008040e80090052100014878009005210084
:10535400104078008080fb00800521001040780018
:105364000080fb000080e800808f500029003a0094
:1053740090052100104078008080fb00a2052100e8
:1053840060052100104078000080fb004800dd002b
:1053940000004100480c07000000e00016003a003d
:1053a40060052100104078000080fb008000e800c8
:1053b40030002800008060000000e00004003d0090
:1053c4000000e900c1ff2f00008070000000e80029
:1053d40080407800600521000148780080052100a4
:1053e4008040eb0001487800900521008040eb00ec
:1053f4000148780008003700800521008040eb0058
:1054040001487800900521008040eb0001487800b5
:1054140001003700000000000080fa0000000600d0
:105424000000fa00010037000800070060052100b1
:1054340090407800700521001040780080cf500023
:10544400f9ff3a000080fa00000006000400fa00a8
:1054540070052100104078000080fb004800dd004a
:10546400e60040006005210000804000104f7800f5
:1054740070052100104078000080fb004800dd002a
:10548400e700400060052100008040009040780063
:10549400114798001e80fb0051042000810f50002a
:1054a4000900320051042000810f500005003c0027
:1054b400e50f500094003200f10f50006e003200ee
:1054c40094003700930037001e4090000080fb00da
:1054d400c1042000810f500016003200c1042000d6
:1054e400810f500009003c0071042000810f50001e
:1054f4003400320091042000810f50004700320034
:105504000000e0005300320059003700010520007c
:10551400810f50004800320021052000810f500007
:1055240012003200d1042000810f50000800320024
:105534004f00370020a4210021c0b30001487800a7
:1055440060ae210011c0b300014878004900370063
:1055540020a4210021c0b3000148780060ae2100de
:1055640081c0b3000148780042003700ae4090008b
:10557400f0c4b30080cf500007003a0020a42100fb
:1055840021c0b3000148780060ae210021c0b300ff
:10559400014878000a003700ae40900030c4b300e0
:1055a40080cf500006003a0020a4210021c0b3009f
:1055b4000148780060ae210031c0b3000148780092
:1055c4002c003700be409000f0c4b30080cf5000e0
:1055d40007003a0020a4210021c0b300014878004c
:1055e40060ae210041c0b300014878000a003700d2
:1055f400be40900030c4b30080cf500006003a0093
:1056040020a4210021c0b3000148780060ae21002d
:1056140051c0b300014878001600370020a42100cf
:1056240021c0b3000148780060ae210061c0b3001e
:10563400014878000f00370020a4210021c0b300e6
:105644000148780060ae210091c0b30001487800a1
:105654000800370020a4210021c0b30001487800cd
:1056640060ae210071c0b30001487800010037002a
:1056740000000000270037001e4090000080fb005f
:10568400e90f50000d003200f20f500014003200f8
